:020000040800F2
:1000000058050020010100085F1800083D1700088E
:100010005D180008A3060008691C00080000000025
:10002000000000000000000000000000631800084D
:10003000E7060008000000006118000865180008C5
:100040001B0100081B0100081B0100081B01000820
:100050001B0100081B0100081B0100081B01000810
:100060001B0100081B0100081B0100081B01000800
:100070001B0100081B0100081B0100081B010008F0
:10008000A5060008B10600081B0100081B010008B6
:100090001B0100081B0100081B0100081B010008D0
:1000A0001B0100081B0100081B0100081B010008C0
:1000B0001B0100081B0100081B0100081B010008B0
:1000C0001B0100081B0100081B0100081B010008A0
:1000D0001B0100081B0100081D1C00081B01000873
:1000E0001B0100081B0100081B010008DFF80CD0F1
:1000F00000F0A4FA00480047A52500085805002094
:100100000648804706480047FEE7FEE7FEE7FEE7B1
:10011000FEE7FEE7FEE7FEE7FEE7FEE7C71800089A
:10012000ED000008202A04DB203A21FA02F0002129
:10013000704721FA02F3D040C2F1200291400843F7
:1001400019467047D2B201E000F8012B491EFBD2DC
:1001500070470022F6E710B513460A4604461946D2
:10016000FFF7F0FF204610BD2DE9F04D81EA0304B2
:1001700004F0004B21F0004514464FF0000A23F034
:10018000004150EA050220D054EA01021DD0C5F317
:100190000A570246C5F31303C1F31300C1F30A560D
:1001A00040F4801543F48013A7EB0608101BD646D5
:1001B00008F2FD3873EB050002D308F1010801E0F5
:1001C00092185B41B8F1000F03DA00200146BDE848
:1001D000F08D00204FF48011064684460EE0171B78
:1001E00073EB050705D3121B63EB050306434CEACB
:1001F000010C49084FEA300092185B4150EA0107B0
:10020000EDD152EA030012D082EA040083EA05012C
:10021000084305D0101BAB4106D20122002306E0A3
:1002200000224FF0004302E06FF0010253101AEB7E
:1002300006004CEB085110EB0A0041EB0B01BDE846
:10024000F04D00F054B80EB540F233410291002158
:10025000CDE900110A460B4600F058F803B000BD86
:1002600030B50B46014600202022012409E021FA86
:1002700002F59D4205D303FA02F5491B04FA02F583
:100280002844151EA2F10102F1DC30BD2DE9F05F1A
:100290000546002092469B468846064681464024F5
:1002A0001BE02846414647462246FFF73BFF5346A0
:1002B0005A46C01A914110D311461846224600F002
:1002C000CFF92D1A67EB01084F4622460120002185
:1002D00000F0C6F917EB00094E41201EA4F10104FD
:1002E000DFDC484631462A464346BDE8F09F10B55C
:1002F000141E73F1000408DA401C41F10001921849
:100300005B411A4301D120F0010010BD2DE9F04DF1
:1003100092469B4611B1B1FA81F202E0B0FA80F246
:100320002032904600F09CF904460F4640EA0A004D
:1003300041EA0B0153465A46084313D0114653EA8B
:10034000010019D0C8F140025046FFF7EBFE054608
:100350000E4650465946424600F082F9084305D001
:10036000012004E020463946BDE8F08D0020054319
:1003700046EAE0762C4337430A986305E40AA0EB8B
:1003800008000022FD0A44EA47540A3002D5002042
:100390000146E9E7010510196941DDE90845001941
:1003A0006941BDE8F04DA2E72DE9FE4F804681EAA4
:1003B0000300C00F0C46009021F0004123F00045DF
:1003C000B8EB0200A94105D24046214690461C46A2
:1003D0000B46024623F00040104347D0270DC7F3D9
:1003E0000A00C3F30A510290401A019040286BDAC8
:1003F000C3F3130040F4801B0098924620B1002301
:10040000D2EB030A63EB0B0B01985946C0F1400293
:10041000504600F025F906460D4650465946019AC9
:1004200000F02DF910EB08006141002487EA115219
:1004300084EAE7731A4340D0009A62B3019A012A12
:100440004FEA075215DC001B61EB02014FF000423E
:1004500002EA0752CDE90042001C41F58011324604
:100460002B46FFF753FF03B0BDE8F08F404621460F
:10047000F9E7001B61EB0201001C41F58013001835
:100480005B412018A2F5001747EB030140EAD57045
:10049000B6196D4111E06D084FEA360645EAC075A0
:1004A0004FEA0752001B61EB0201001C41F580116D
:1004B00049084FEA30000019514132462B4603B03B
:1004C000BDE8F04FFFF713BF009801224000002362
:1004D000D0EB020263EBE073009821464FEAE07430
:1004E000B8EB000061EB0401E9E783F000435BE750
:1004F00081F0004158E72DE9FE4F81EA030404F042
:10050000004421F0004100944FF0000B23F0004321
:1005100050EA01045ED052EA03045BD0C3F30A54EC
:10052000C1F30A552C44A4F2F3340194A0FB025405
:10053000C1F3130141F48011C3F3130343F4801397
:1005400001FB024400FB034E840A970A44EA8154EB
:1005500047EA8357A4FB076802958D0A05FB0785C8
:100560004FEA932C04FB0C542705029D4FEA0658D2
:1005700047EA1637B5EB08056EEB070C870E920EAF
:1005800047EA811742EA8312A7FB0201B6EB0B018F
:1005900064EB00042B0D43EA0C335E1844EB1C5053
:1005A000DA465146E7FB0201C5F313044FEA0B3369
:1005B00043EA14534FEA0432019C43EA0603A4F1D0
:1005C0000C040294009CCDE900B4FFF79FFE03B039
:1005D000BDE8F08F00200146F9E7C1F30A52C1F3EC
:1005E000130140F2FF3341F480119A4202DA0020F5
:1005F0000146704740F233439A42A2F2334202DC92
:100600005242FFF78FBD00F02BB8000030B5041E3A
:1006100071F1000404DB4FF00044404264EB01013F
:10062000141E73F1000405DB1C464FF000435242D8
:1006300063EB0403994208BF904230BD064C074D5E
:1006400006E0E06840F0010394E8070098471034A2
:10065000AC42F6D3FFF74EFDC8260008E826000896
:10066000202A04DB203A00FA02F100207047914072
:10067000C2F1200320FA03F3194390407047202A67
:1006800006DBCB17203A41FA02F043EAE07306E0BA
:1006900041FA02F3D040C2F12002914008431946CA
:1006A0007047FEE7014800F091B80000D00000203C
:1006B000014800F08BB800001401002030B590F81C
:1006C00040500124AC40C56B6C60046863604368B3
:1006D000102B036803D099600068C26030BD9A6037
:1006E0000068C16030BD704772B6FEE710B590F883
:1006F00021100022022905D00421816380F82020E6
:10070000012010BD01680B6823F00E030B60016827
:100710000B6823F001030B6090F84030C46B01219B
:1007200001FA03F3636080F8211080F8202010465E
:1007300010BD000010B590F821100024022903D04C
:100740000421816301243DE001680A6822F00E0261
:100750000A6001680A6822F001020A601A4A016808
:10076000914201D1012121E0174A1432914201D175
:1007700010211BE0144A2832914201D1891515E05D
:10078000114A3C32914201D189140FE00E4A503295
:10079000914202D14FF4803108E00B4A6432914219
:1007A00002D14FF4801101E04FF08071064A083AFF
:1007B0005160012180F82110002180F82010416B48
:1007C00001B18847204610BD080002402DE9F05FC6
:1007D000C16B0C6801680B68D0F840C0042202FAB3
:1007E0000CF2494DDFF824A1494E4A4FDFF828B1F9
:1007F000DFF828E122422CD05A072AD50A6892064F
:1008000003D40A6822F004020A600168A94201D1F7
:10081000042219E0514501D1402215E0B14202D134
:100820004FF4806210E0B94202D14FF480420BE0F5
:10083000594502D14FF4802206E0714502D14FF4B0
:10084000800201E04FF080622F4908394A60C16A96
:100850003BE04FF0020808FA0CF818EA040F4FF0DA
:1008600000094FF0010235D05FEA837832D50B687A
:100870009B0605D40B6823F00A030B6080F8212047
:100880000168A94201D1022219E0514501D120227B
:1008900015E0B14202D14FF4007210E0B94202D12A
:1008A0004FF400520BE0594502D14FF4003206E0FC
:1008B000714502D14FF4001201E04FF0007212496D
:1008C00008394A6080F82090816A00291AD0BDE872
:1008D000F05F0847082505FA0CF5254212D01B07E2
:1008E00010D50B6823F00E030B6090F84010C36B1B
:1008F00002FA01F15960826380F8212080F820908B
:10090000016BE2E7BDE8F09F080002401C000240D6
:100910003000024044000240580002406C00024097
:1009200030B528B308C8134914221944B1FBF2F1B9
:100930008900C16310498163022141771A6843F637
:10094000F0718A43D0E900142143D0E902452C43D9
:1009500021430469214344692143846921431143AC
:10096000196000214163012242770177084630BDBA
:10097000012030BDF8FFFDBF0000024070B5044605
:1009800090F82000002501280CD0012084F82000D8
:1009900094F821600020012E06D084F82000022562
:1009A000284670BD022070BD022684F82160A06335
:1009B0002068066826F0010606602046FFF77EFEE6
:1009C000E06A00282068016802D041F00E0106E0CC
:1009D00021F0040101602068016841F00A01016012
:1009E0002068016841F001010160D9E770B5044653
:1009F00000F00CF90546601C02D00448007804445D
:100A000000F004F9401BA042FAD370BD2000002082
:100A10002DE9F84FDFF8B891002409F1040A0AF132
:100A2000040B23460F270BF1040EC9E00125A54056
:100A30002A40AA427DD1674ED1F804C0ACEB06082B
:100A4000B44532D014DCBCF1030F3AD009DCBCF160
:100A5000000F2AD0BCF1010F1CD0BCF1020F31D124
:100A60001DE0BCF1110F17D0BCF1120F2AD119E013
:100A7000B8F5881F19D006DCB8F5803F15D0B8F559
:100A8000801F1FD111E0B8F5001F0ED0B8F5041F6C
:100A900018D10AE0CB6815E0CB681B1D12E0CB68CB
:100AA00008330FE0CB680C330CE08B682BB1012BC3
:100AB0004FF0080303D0456104E0042302E0056120
:100AC00000E00023FF2A01D8064601E000F10406F9
:100AD0004FEA840501D9A5F12005D6F8008007FA70
:100AE00005FC28EA0C0803FA05F548EA0508C6F8EB
:100AF00000804D68ED0062D5374DAE6946F00106C5
:100B0000AE61AD6924F0030605F001050095334D93
:100B100006EB050CDCF80850A607360F07FA06F8B6
:100B200025EA0805DFF8B880404503D14FF00008FA
:100B300017E044E0DFF8AC80404502D14FF00108F7
:100B40000FE0DFF8A480404502D14FF0020808E032
:100B5000DFF89880404502D14FF0030801E04FF0E4
:100B6000040808FA06F848EA0508CCF808804D6839
:100B7000D9F80060ED034D4601D5164300E09643D9
:100B80002E604D68DAF80060AD03554601D5164376
:100B900000E096432E604D68DBF80060ED025D4694
:100BA00001D5164300E096432E604D68DEF80060E4
:100BB000AD02754601D5164300E096432E60641CD5
:100BC0000D682A46E5407FF431AFBDE8F88F00009C
:100BD000000401400000111000100240000001401C
:100BE00000080140000C01400010014000140140C9
:100BF000C26821EA02030A4043EA024101617047E8
:100C00000AB1016170470904FBE7000001488068F0
:100C100070470000200000200248816802781144DB
:100C20008160704720000020074810B5016841F03E
:100C300010010160032000F075F80F2000F006F8A5
:100C400000F024F8002010BD0020024070B50D4DCA
:100C500004464FF47A712878B1FBF0F00A4909682C
:100C6000B1FBF0F000F0ECFA48B9102C07D20022EA
:100C70002146501E00F036F800206C6070BD012047
:100C800070BD0000200000202C0000200C4808B59A
:100C9000816941F001018161816901F001010091E7
:100CA000C16941F08051C161C06900F0805000907D
:100CB0000448416821F0E06141F08061416008BD75
:100CC0000010024000000140002809DB00F01F0274
:100CD000012191404009800000F1E020C0F800119E
:100CE00070470000F0B40E4B1B680C46C3F30223A0
:100CF000C3F10705042D00D90425191D072901D2C8
:100D0000002300E0DB1E012606FA05F1491E214002
:100D100099409E40761E16403143F0BC00F0B6BFAD
:100D20000CED00E0064900F0070208684FF6FF03EB
:100D3000184040EA0220034A104308607047000050
:100D40000CED00E00000FA052DE9F0470F46050024
:100D500061D0434E306800F00700B84209D23068D5
:100D600020F0070038433060306800F00700B842D8
:100D700051D128683B4C810712D5400703D56068E4
:100D800040F4E06060602878000703D5606840F4B4
:100D9000605060606068A96820F0F00008436060FF
:100DA0002878C00728D06868012810D02168022858
:100DB00010D0890700292EDA616821F00301014370
:100DC0006160FFF723FF804641F288390DE021681A
:100DD0008903EFE78901EDE7FFF718FFA0EB0801B2
:100DE000494502D90320BDE8F0876068696800F0D2
:100DF0000C00B0EB810FEFD1306800F00700B84273
:100E00000BD9306820F0070038433060306800F0BC
:100E10000700B84201D00120E5E72878400705D552
:100E20006068E96820F4E0600843606028780007A3
:100E300006D56068296920F4605040EAC10060600E
:100E400000F038F86168084AC1F30311515CC840EA
:100E50000649086006480068FFF7F8FE0020C2E770
:100E60000020024000100240B02600082C000020A4
:100E7000240000200448054900684968044AC1F379
:100E80000221515CC84070472C0000200010024035
:100E9000C02600080448054900684968044AC1F3AF
:100EA000C221515CC84070472C0000200010024055
:100EB000C026000812A185B00FC98DE80F0014A04C
:100EC000144A006804905168134801F00C03042B85
:100ED00010D0082B0ED1C1F38343C9031DF80300C2
:100EE0000AD5516804AAC1F34041515C0A4A5043F3
:100EF000B0FBF1F005B0704708494843FAE700003D
:100F000002030405060708090A0B0C0D0E0F10104A
:100F1000010200000010024000127A0000093D00AA
:100F20002DE9F84F040070D02078C04DC00749D09B
:100F30006868C0F38100012807D06868C0F38100A9
:100F4000022809D16868C00306D52868800339D50E
:100F500060680028E7D035E06068B0F5803F0BD0CE
:100F600010B1B0F5A02F11D0286820F4803028608F
:100F7000286820F4802002E0286840F4803028604F
:100F8000606890B1FFF742FE06460AE0286840F428
:100F900080202860F0E700BFFFF738FE801B642840
:100FA00073D828688003F7D50CE0FFF72FFE0646BC
:100FB00005E000BFFFF72AFE801B6428F0D82868F0
:100FC0008003F7D420789A4E80074FF001094FF044
:100FD000000839D5686810F00C0F07D06868C0F3B6
:100FE0008100022809D16868C00306D428688007F8
:100FF00014D52069012808D110E02069B0B1C6F8E5
:101000000090FFF703FE074605E00AE1FFF7FEFD4B
:10101000C01B0228C4D828688007F7D528686169F2
:1010200020F0F80040EAC10028600DE0C6F800801A
:10103000FFF7ECFD074604E0FFF7E8FDC01B0228C0
:1010400023D828688007F7D4207800072CD5794862
:10105000A169D9B1C0F80090FFF7D8FD074604E0B8
:10106000FFF7D4FDC01B02280FD8686A8007F7D5A8
:1010700071484FF4FA510068B0FBF1F0009000BFE6
:101080000098411E0091FAD20EE080E0C0F8008086
:10109000FFF7BCFD074604E0FFF7B8FDC01B0228C0
:1010A00075D8686A8007F7D42078400760D5E8696A
:1010B0000027C00008D4E86940F08050E861E86982
:1010C000012700F0805000905C480168C90513D4E6
:1010D0000168834641F480710160FFF797FD824605
:1010E00006E000BFFFF792FDA0EB0A0064284ED88F
:1010F000DBF80000C005F5D5E06801280AD008B18A
:10110000052813D0286A20F001002862286A20F000
:10111000040002E0286A40F001002862E06841F221
:10112000883B98B1FFF772FD82460BE0286A40F0D9
:1011300004002862EEE700BFFFF768FDA0EB0A019C
:1011400059455AD8286A8007F6D50CE0FFF75EFDAE
:10115000824605E0FFF75AFDA0EB0A0159454CD83D
:10116000286A8007F6D41FB1E86920F08050E86152
:10117000E06988B36968C1F38101022944D002287B
:10118000C6F8608004D0FFF741FD044638E034E043
:10119000FFF73CFD074604E0FFF738FDC01B0228BF
:1011A0002BD828688001F7D4206AB0F5803F05D19C
:1011B0006868A16820F4003008436860D4E9080139
:1011C0000843696821F4741108436860C6F86090A8
:1011D000FFF71CFD044606E025E000BFFFF716FD03
:1011E000001B022809D828688001F7D51BE000BF42
:1011F000FFF70CFD001B022802D90320BDE8F88F81
:1012000028688001F4D40EE00128F7D06868226ACB
:1012100000F48031914204D1616A00F47010884278
:1012200001D00120EAE70020E8E7000000100240BA
:1012300000004242800442422C0000200070004026
:1012400010B5401EB0F1807F01D3012010BD4FF0DA
:10125000E02460610F21601700F018FD0020A061FC
:1012600007202061002010BD704710B504460068BB
:10127000416994F83D20C1F3C011212A0BD151B12D
:10128000416921F080014161606B08B1FFF72EFADE
:10129000204600F098FB2068416994F83E20C1F395
:1012A0008011222A0BD151B1416921F040014161E5
:1012B000A06B08B1FFF71AFA204600F06CFB002083
:1012C00010BD7047F8B5026804461068D1685369CC
:1012D00010F00F0F4FF0000553D003F0010601F49A
:1012E000907737435FD0C20705D0CA0503D5226C7B
:1012F00042F001022264420705D5DA0703D0226CCE
:1013000042F002022264820705D5DA0703D0226C7C
:1013100042F004022264020707D501F020023243A2
:1013200003D0226C42F008022264226C002A34D0DE
:10133000800604D5880602D5204600F04DFB2068C3
:101340004069216CC0F38010090700D430B32046F7
:1013500000F021FB2068416949061BD5416921F055
:1013600040014161A06BA8B158494163A06BFFF7F0
:10137000E1F9002811D0A06B416B01B0BDE8F0404D
:10138000084783060FD58B060DD52046BDE8F840EB
:1013900000F022BB2046FFF794FFF8BD2046FFF780
:1013A00090FF2564F8BD266B2023012E52D1C6067E
:1013B00050D5CE064ED51068506800905069400652
:1013C0002AD5A16B086840680004000CEAD0A68DFD
:1013D0008642E7D9E0858869202818D0D06820F4B3
:1013E0008070D0602068416921F00101416120686E
:1013F000416921F04001416184F83E302563206855
:10140000C16821F01001C160A06BFFF76FF9A08DDA
:10141000E18D401A81B219E0A08DE18D401A81B2B0
:10142000E08D0028BED00029BCD0D06820F4907098
:10143000D0602068426922F00102426184F83E30A7
:1014400025632068C26822F01002C2602046FFF7C0
:101450000BFFF8BD05062BD50D0629D594F83D00E8
:101460002128F6D1A068B0F5805F01D12069B0B124
:10147000206A411C2162216800784860E08C401E8F
:101480000004000CE084E4D12068C16821F08001F0
:10149000C1602068C16841F04001C160F8BD206AA8
:1014A0000088C0F308005060206A801C2062E5E7D5
:1014B0004006F3D54806F1D5D168204621F0400119
:1014C000D16084F83D3000F038F9F8BDC918000843
:1014D00070B5040004D094F83D00002510B106E07A
:1014E000012070BD84F83C50204600F023F82420F1
:1014F00084F83D002068C16821F40051C160204695
:1015000000F0C6FA2068016921F490410161206869
:10151000416921F02A0141612068C16841F400510C
:10152000C1602564202084F83D0084F83E0000203E
:1015300070BD0000F0B585B00024009401940294C1
:10154000039406463E4F03683E48022103223E4D67
:10155000BB4221D1836943F480438361836903F4EF
:1015600080430493836943F0040383618069039299
:1015700000F0040004900802CDE900016946284605
:10158000FFF746FA2815CDE900046946284602947B
:10159000FFF73EFA05B0F0BD2C4FBB42FAD1C3694C
:1015A00043F40033C361C36903F4003304938369D4
:1015B00043F0040383618069039200F00400049007
:1015C0000420CDE9000169462846FFF721FA0820EA
:1015D000CDE90004694628460294FFF719FA1D4D2B
:1015E0001B488027C5E90004C5E902472C616C61EE
:1015F000AC612846EC61FFF793F908B1FFF774F886
:10160000B5636E62134D12484435143001C5102085
:1016100091C5104845F8104944306C61AC61EC61EB
:10162000FFF77EF908B1FFF75FF8756300221146F6
:1016300026206E62FFF756FB2620FFF745FBA9E741
:101640000038014000100240000801400044004002
:101650006C000240D000002090F83E30202B0ED1CC
:1016600059B152B190F83C30012B08D0012380F8D9
:101670003C300023036300F067BA0120704702206A
:1016800070477047704700002DE9F843044690F812
:101690003D001F4616460D4620284CD1C5B1BEB1AF
:1016A00094F83C00012846D0012084F83C004FF01B
:1016B0000008C4F84080212084F83D00FFF7A6FA16
:1016C000A6848146E684A068B0F5805F03D004E07C
:1016D0000120BDE8F883206928B12E465FF000059F
:1016E00084F83C800EE00026FAE78021204600F0D6
:1016F00063FAA0B9AEB116F8010B21684860E08C1E
:10170000401EE084E08C4B464FF00002009700281A
:10171000EBD14FF04001204600F04EFA30B10320EB
:10172000D7E735F8020BC0F30800E6E7202084F87D
:101730003D000020CDE70220CBE77047FEE7000028
:101740000D4808B5416941F001014161406900223D
:1017500000F00100009011461020FFF7C3FA10209E
:10176000FFF7B2FA002211461120FFF7BBFABDE8DD
:1017700008401120FFF7A8BA0010024070B586B0EB
:10178000002418480094019402940394816941F064
:1017900010018161816901F010010491816941F0BA
:1017A00020018161816901F020010491816941F08A
:1017B0000401816180690C4E00F004004FF4005573
:1017C0000490002229463046FFF71AFA01200095BE
:1017D000CDE901040220039069463046FFF718F96D
:1017E00006B070BD00100240001001400C4810B55A
:1017F0000A4901604FF4E1314160002181600C220F
:10180000C160C0E904128161C161FFF761FE002877
:1018100003D0BDE81040FEF767BF10BD003801409F
:10182000480000200C4810B50A4901604FF4965159
:101830004160002181600C22C160C0E90412816115
:10184000C161FFF745FE002803D0BDE81040FEF758
:101850004BBF10BD004400408C000020FEE7FEE7B7
:1018600070477047FFF7D8B930B58FB02821684668
:10187000FEF76FFC14210AA8FEF76BFC0121080497
:10188000CDE900100024029402250491CDE907500F
:101890004FF4E01009906846FFF742FB08B172B6BA
:1018A000FEE70F20CDE90A054FF48060CDE90C403A
:1018B00002210AA80E94FFF747FA002801D072B659
:1018C000FEE70FB030BD704710B5406A0021C185FA
:1018D000C184FFF7F6FC10BD70B5446A206840690A
:1018E00094F83D10C0F3C0100025212904D118B18F
:1018F000E584204600F067F82068406994F83E10BF
:10190000C0F38010222904D118B1E585204600F0EB
:1019100042F8206C40F0100020642046FFF7D1FC14
:1019200070BD10B50146406A0968096889061BD474
:101930000021C1850168CA6822F48072CA6001680A
:101940004A6922F001024A6101684A6922F04002B4
:101950004A61202180F83E10016B012904D1016801
:10196000CA6822F01002CA60016B012902D0FFF799
:1019700088FE10BD818DFFF777FC10BD10B5406A61
:10198000016B012902D0FFF77DFE10BD818D490852
:10199000FFF76AFC10BD0168CA6822F49072CA6041
:1019A00001684A6922F001024A61016B012904D1F0
:1019B0000168CA6822F01002CA60202180F83E1037
:1019C0000021016370470168CA6822F0C002CA6042
:1019D000202180F83D10704708B590F83E1022296C
:1019E00001D0022008BD82684FF480539A4201D191
:1019F000016921B1816A9A421BD04AB10AE00268AA
:101A0000816A5268C2F308020A80816A891C08E070
:101A1000026972B10268526802F07F020A70816A3C
:101A2000491C8162C18D491E0904090CC18503D07E
:101A300019E002685268F1E70168CA6822F02002E2
:101A4000CA600168CA6822F48072CA6001684A6983
:101A500022F001024A61202180F83E10016B012929
:101A600003D0FFF70EFE002008BD002101630168CE
:101A7000CA6822F01002CA6001680A68D20602D55C
:101A80000A6849680091818DFFF7EEFBEBE70000E3
:101A900070B5044600680169E26821F440511143C1
:101AA00001612169A0680843616908432168CA6827
:101AB00041F20C639A430243CA6020684169A269FB
:101AC00021F44071114341611E492068884202D1CE
:101AD000FFF7E0F901E0FFF7CDF900EBC00101EB02
:101AE0000012606864218000B2FBF0F3B3FBF1F3F5
:101AF0006FF018067343B2FBF0F5B2FBF0F605EB9E
:101B00008305322303EB0515B5FBF1F5B6FBF1F6C2
:101B100005F0F00505EB0615B2FBF0F6B2FBF0F0B0
:101B2000B0FBF1F06FF01802504306EB800003EBBE
:101B30000010B0FBF1F0216800F00F00284488602D
:101B400070BD00000038014038B5816282850025F3
:101B5000134604460564222084F83E00A26B134815
:101B60009062A26B1248D062A26B12481063A06B05
:101B70000A4645632168A06B091DFEF7FFFE206839
:101B800001684168009184F83C50C16841F480715B
:101B9000C1602068416941F00101416120684169EB
:101BA00041F040014161002038BD000023190008C8
:101BB0007D190008D91800082DE9F041984617460C
:101BC0000E460446069D1DE0681C1BD02DB1FFF794
:101BD0001DF8A0EB0800A84214D92068C16821F4C0
:101BE000D071C1602068416921F00101416120206C
:101BF00084F83D0084F83E00002084F83C00032077
:101C0000BDE8F0812068006836EA000004D00020BA
:101C1000B842D9D00020F3E70120F9E738B50E4CDF
:101C200020680168C1F3001181B101684068204655
:101C3000FFF71BFB0948006840680949087009491B
:101C4000012008702068016840680090BDE83840B5
:101C50000148FFF737BB00008C000020D0000020B7
:101C60001E00002000000020FEE700000FB4054B1E
:101C700010B503A9044A029800F0EAF810BC5DF818
:101C800014FB000081250008300000200907090E20
:101C9000002804DB00F1E02080F80014704700F019
:101CA0000F0000F1E02080F8141D704702E008C822
:101CB000121F08C1002AFAD170477047002001E0C6
:101CC00001C1121F002AFBD1704700002DE9FF5F00
:101CD00082B00021DDE90430020DDDF840B003439D
:101CE00018D044F61050A2F2FF3242431514119856
:101CF00001281FD0A5EB0B00401C5FEA000A4FF043
:101D000000064E4FDFF83891B046504615D5CAF15F
:101D1000000413E0119801244AA3012801D16FEABD
:101D20000B010298119AC0E90031C0E9024206B0E5
:101D3000BDE8F09FCBF10000DFE704460021404AF8
:101D4000491842EB0450CDE9001012E0E00707D03B
:101D500032463B4640464946FEF7CDFB8046894623
:101D600032463B4610461946FEF7C5FB06460F466F
:101D70006410002CEAD1DDE90401DDE90023BAF1A9
:101D8000000F06DAFEF7B7FB42464B46FEF7B3FB01
:101D900005E0FEF7E9F942464B46FEF7E5F9044651
:101DA0000E460022284BFEF731FC03D84FF0FF30DF
:101DB000014607E00022254B20463146FEF7F4FAA3
:101DC000FEF70BFC102409E0002C0ADB0A2200239A
:101DD000FEF75CFA039B30321A55641E50EA01028A
:101DE000F2D1641C039AC4F111031444119A012A1C
:101DF00003D0012208430DD10AE0084304D000209B
:101E00004FF0110B119072E7A3EB0B056D1E0DE067
:101E10005B4504DD4FF0000205F1010504E003DA43
:101E20004FF00002A5F10105002AECD002981199AB
:101E3000C0E90231C0E9004579E700000000144024
:101E40000000F03F300000000000F0430000E03FE1
:101E50002DE9FF4F95B09B468946064600250FE2C7
:101E6000252877D100242746F84A0121059400E06F
:101E7000044316F8013F203B01FA03F01042F7D16A
:101E800030782A2811D06FF02F033078A0F130027B
:101E9000092A16D8059A44F0020402EB820203EBE9
:101EA00042021044761C0590EFE759F8042B059286
:101EB000002A03DA504244F40054059044F002042E
:101EC000761C30782E2816D116F8010F44F0040441
:101ED0002A280DD06FF02F023078A0F13003092BA3
:101EE00009D807EB870302EB4303C718761CF3E717
:101EF00059F8047B761C30786C280FD006DC4C280F
:101F000017D068280DD06A2814D104E0742810D0A6
:101F10007A280FD10DE044F400140AE044F4801450
:101F200001E044F440147278824202D104F5801436
:101F3000761C761C307866280BD013DC582877D0B6
:101F400009DC002875D04528F6D04628F4D047286B
:101F50001AD19DE118E0632835D0642879D065282E
:101F600012D195E1702873D008DC6728F1D0692878
:101F70006FD06E280DD06F2806D1B5E073282CD015
:101F8000752875D0782874D05A46179990476D1CDB
:101F900075E1C4F30250022809D003280DD0D9F806
:101FA000001004280DD00D6009F1040967E1D9F88B
:101FB0000010EA17C1E90052F6E7D9F800100D80C9
:101FC000F2E70D70F0E719F8041B8DF800100020FF
:101FD0008DF80100EA46012003E059F804AB4FF008
:101FE000FF3061074FF0000102D40DE008F101015C
:101FF0008846B9420FDA8045F8DB1AF80810002944
:10200000F4D108E008F1010188468142FADB1AF8B0
:1020100008100029F6D105985B46A0EB0807214679
:102020003846179A00F094FA284400EB080507E0B8
:102030004DE029E10DE01AF8010B5A461799904737
:10204000B8F10108F7D25B4621463846179A13E1EA
:1020500042E00A220092C4F302524FF0000A022A20
:1020600008D059F804CB032A4FEAEC710AD00DE0EE
:1020700029E02AE009F1070121F00702F2E802C194
:10208000914609E00FFA8CFC4FEAEC71042A03D167
:102090004FFA8CFC4FEAEC71002907DA0A4600215E
:1020A000DCF1000C61EB02012D2202E0220504D5D7
:1020B0002B228DF80420012203E0E20701D0202228
:1020C000F7E7904659E00A2102E010220DE01021C6
:1020D0004FF0000A00910BE010224FF0000A44F08C
:1020E00004040827009203E008224FF0000A00923F
:1020F000C4F30252022A05D059F804CB0021032A66
:1021000008D009E009F1070121F00702F2E802C155
:10211000914605E01FFA8CFC042A01D10CF0FF0C5B
:102120004FF00008220728D5702806D0009B83F0C6
:10213000100353EA0A0305D00EE040228DF8042074
:10214000012208E05CEA010206D030228DF804206A
:102150008DF8050002229046009B83F0080353EAA5
:102160000A030AD15CEA010201D1620705D53022D7
:102170008DF804204FF001087F1E582804D034A0A9
:1021800003900EA802900DE036A0F9E75346604692
:10219000009AFEF77BF884460398825C0298401E02
:1021A000029002705CEA0100F0D1029806A9081AB8
:1021B00000F1200A600702D524F4803400E00127F2
:1021C000574502DDA7EB0A0000E0002000EB0A0102
:1021D000009005984144401A0590E00306D45B4600
:1021E0002146179A059800F0B3F90544002706E048
:1021F00001A85A46C05D179990476D1C7F1C474542
:10220000F6DBE0030CD55B462146179A059800F0F3
:102210009FF9054404E030205A46179990476D1CF9
:102220000099481E00900029F5DC08E00298029908
:102230005A460078491C0291179990476D1CBAF1D3
:102240000001AAF1010AF1DC65E1000009280100A2
:10225000303132333435363738396162636465661C
:1022600000000000303132333435363738394142DE
:10227000434445460000000000F058F90544761C30
:10228000307800287FF4ECAD19B02846BDE8F08F17
:10229000620700D4062709F1070222F0070CFCE8C8
:1022A0000223E14603F000485FEA080C02D00FF277
:1022B000702C0DE05FEA045C02D50FF2682C07E099
:1022C0005FEAC47C02D00FF2602C01E0AFF2700C28
:1022D0004FF0FF3823F00043CDF850C065280CD0F4
:1022E00006DC452809D046281DD047283DD13DE0D1
:1022F000662818D067287ED138E00021112F01DB35
:10230000112000E0781CCDE9000106A90EA8FFF716
:10231000DDFCDDE90F010E9A03910021009207F127
:10232000010A04914DE04FF000400097CDE9011003
:1023300006A90EA8FFF7CAFCDDE90F0203920E9B67
:1023400011990022DDF80CA00093049211B9791CB8
:1023500000EB010AB7EB0A0004D4C0F1FF3007F12B
:10236000010A0490AAEB0700019044E0012F00DA73
:1023700001270021112F01DD112000E03846CDE9B1
:10238000000106A90EA8FFF7A1FCDDE90F010E9AD6
:102390000391002104910092BA4621070CD40399BD
:1023A000514500DA8A46BAF1010F05DD009AAAF11B
:1023B0000101515C302908D0B84202DA10F1040F53
:1023C00006DA0121CDE9011015E0AAF10101E9E7E2
:1023D000002805DC049901440491AAEB000102E005
:1023E000411C514500DD8A460499401A401C019069
:1023F0004FF000400290200704D40198504501DBC3
:10240000CDF8048000208DF84F0002980DF14F07A1
:10241000B0F1004F25D02B200E9002984FF002080B
:1024200000280CDA404202902D200E9007E00A218D
:102430000298FDF715FF3031029007F8011DB8F141
:102440000001A8F10108F2DC02980028EFD1791E02
:102450000E980870307800F0200040F0450007F832
:10246000020D12A8C01B00F107081498007800B1F3
:10247000012000EB0A01019801EBE071059841444D
:10248000401A401E0590E00306D45B462146179A89
:10249000059800F05DF805441498007818B15A4684
:1024A000179990476D1CE00324D55B462146179A87
:1024B000059800F04DF805441CE00498002807DB5F
:1024C000DDE90301884203DD0098405C179901E0D3
:1024D000179930205A469047049805F10105401C91
:1024E00004900198401E019004D12E205A4617995D
:1024F00090476D1CBAF10001AAF1010ADDDC05E08C
:1025000017F8010B5A46179990476D1CB8F1000156
:10251000A8F10108F4DC5B462146179A0598ABE662
:102520002D0000002B000000200000002DE9F041EC
:10253000044600251E461746880404D405E03946A3
:102540002020B0476D1C641EF9D52846BDE8F081F7
:102550002DE9F041044600251E469046C80301D5EA
:10256000302700E02027880404D505E0414638469E
:10257000B0476D1C641EF9D52846BDE8F081000007
:1025800013B54FF6FF73012269460548FFF77CF843
:10259000034800680168C9434906FBD400981CBD84
:1025A000480000201CB5FEF73FFBFFF75DF9FFF781
:1025B000E5F8FFF71BF9FFF7C3F8FFF733F92F48EA
:1025C0000068C16841F01001C16014222C492B48F9
:1025D000FFF742F8DFF8ACB00025ABF1060400BF0E
:1025E0000BEBC5014FF6FF7308222448FFF74CF8A8
:1025F00003206D1CB5FBF0F100FB1155142220499E
:102600001E48FFF729F84FF47A70FEF7EFF94FF400
:1026100000511D48FEF7ECFA20780028E0D0184E53
:102620003079F17800EB012080B2A080B179727925
:1026300001EB022189B261808946FDF704FEDFF8D3
:102640004CA000225346FDF78FFD074688464846BA
:10265000FDF7F9FD00225346FDF786FDCDE9007830
:102660000B46024631780AA0FFF700FB14213046E2
:10267000FDF76FFD00202070B2E700008C00002005
:10268000340000200600002000100140000024401B
:10269000253032783A20CEC2B6C83A20252E31668F
:1026A0000920CAAAB6C83A20252E31660D0A0000B4
:1026B00000000000000000000102030406070809F2
:1026C0000000000001020304E826000800000020CA
:1026D00034000000AC1C00081C2700083400002057
:1026E00024050000BC1C00080000000000000103DD
:1026F00000000002C40B020300000002C438030300
:1027000000000002C5E90000010000001000000008
:0C271000000000000024F40000000000A5
:04000005080000ED02
:00000001FF
